:100000000C9474000C9489000C9489000C94890061
:100010000C9489000C9489000C9489000C9489003C
:100020000C9489000C9489000C9489000C9489002C
:100030000C9489000C9489000C9489000C9489001C
:100040000C9489000C9489000C9489000C9489000C
:100050000C948900A6016601F30166016601660140
:100060006601660166016601660166016601660158
:100070006601660166016601660166016601660148
:10008000720176017A0166016601900166016601DE
:100090006601660166016601660166016601660128
:1000A0006601660166017E01660166016601660100
:1000B0006601660166016601660166016601660108
:1000C000740178017C0166016601A0016601660188
:1000D00066016601660166016601660166016601E8
:1000E0006601660166018D0111241FBECFE5D8E0CF
:1000F000DEBFCDBF10E0A0E6B0E0E0E1F9E002C075
:1001000005900D92A83AB107D9F70E9446010C94C8
:1001100086040C94000087B1806C87B986B186682C
:1001200086B9089597B1907E8F71892B87B9369AD9
:10013000349BFECF349A84B125B190E0922B089580
:1001400092B39F70282F207F922B92BB9298939A04
:1001500035E03A95F1F700009398EFE8F1E0319738
:10016000F1F700C0000022B32F70F0E18F9FC001B3
:100170001124822B82BB939A35E03A95F1F7000067
:1001800093988FE891E00197F1F700C0000008957F
:1001900081B38C6081BB81B3806F81BB93988FE307
:1001A0009FE10197F1F700C0000082E30E94A000E8
:1001B00088E20E94A0008CE00E94A00081E00E94E2
:1001C000A0008FE39FE10197F1F700C000000895C0
:1001D00092B39F70282F207F922B92BB929A939A72
:1001E00035E03A95F1F700009398EFE8F1E03197A8
:1001F000F1F700C0000022B32F70F0E18F9FC00123
:100200001124822B82BB939A35E03A95F1F70000D6
:1002100093988FE891E00197F1F700C000000895EE
:100220000F931F93CF93FC018081882359F08F0196
:10023000C0E00E94E800CF5FF801EC0FF11D808163
:100240008111F7CFCF911F910F910895CF93DF9335
:1002500000D0CDB7DEB790E8998390EC9A83FE0189
:10026000E60FF11D81509081890F0E94A0008FE858
:1002700091E00197F1F700C000000F900F90DF911F
:10028000CF91089581E00E94A00008950E94C800C7
:1002900083E50E944A020E948B000E94600284B3A0
:1002A000806E84BB87B3836087BB83B7836683BF5D
:1002B000C0E0D0E00F2EFFE7DF2EF02D0F2EFFEB7A
:1002C000EF2EF02DFF24FA940FE310E00E945C0261
:1002D00090E0FC01BB97EA34F105C0F7E65DFF4F03
:1002E0000C946C04AD9AF2CFAD98F0CFAE9AEECFED
:1002F000AE98ECCFAF9AEACFAF98E8CF83E00E94F8
:1003000092009695879596958795BC0180E090E040
:100310000E94CA030E946702F1CF0E946002FDCFD3
:100320001CBEC19AC0980E94420161E081E00E9417
:10033000260180E690E00E941001C0E0D1E0C6CF27
:100340001CBEC098C198C0E0D12FC0CFD1110BC046
:100350000E94420161E081E00E9426018AE690E06D
:100360000E941001B3CFCF5FC230A9F018F4C130A2
:1003700031F034C0C330D9F0C43029F12FC00CBFE4
:100380000E94420161E081E00E9426018BE790E03B
:100390000E94100123C0DCBE0E94420161E081E0A6
:1003A0000E94260186E890E00E94100117C0ECBE72
:1003B0000E94420161E081E00E94260181E990E013
:1003C0000E9410010BC0FCBE0E94420161E081E06E
:1003D0000E9426018CE990E00E941001C53008F4CB
:1003E00075CFC4E073CFD1110BC00E94420161E010
:1003F00081E00E9426018AE690E00E94100166CF0B
:10040000C150C23019F128F4CC2341F0C13091F031
:100410005DCFC33039F1C43089F158CF1CBE0E9482
:10042000420161E081E00E94260180E690E00E94A6
:1004300010014CCF0CBF0E94420161E081E00E949C
:1004400026018BE790E00E94100140CFDCBE0E94A5
:10045000420161E081E00E94260186E890E00E946E
:10046000100134CFECBE0E94420161E081E00E94A5
:10047000260181E990E00E94100128CFFCBE0E9475
:10048000420161E081E00E9426018CE990E00E9437
:1004900010011CCF8D3419F0833551F0089587B3C6
:1004A000806B87BBBE988DB180658DB9C49A089565
:1004B000BD98BE9A6E9A0895779BFECF8FB108952E
:1004C00084B38F6084BB8AB386608ABB0895CF9261
:1004D000DF92EF92FF920F931F93CF93DF936B0105
:1004E0007C010E9494030AE010E0CB01B8010E9455
:1004F0005804EC01BC017727072E000C880B990BE0
:100500000E94CC039B01AC01C701B6010E94B50259
:1005100025B3207FC22BC5BBDA9AEFE1FEE4319709
:10052000F1F700C00000DA98C5B320E030E040E207
:1005300051E40E9422030E949403CB01B8010E945F
:100540005804C07F8C2B85BBD99A8FE19EE401971C
:10055000F1F700C00000D998DF91CF911F910F9162
:10056000FF90EF90DF90CF9008955058BB27AA27B7
:100570000E94CD020C941E040E94100438F00E94C8
:10058000170420F039F49F3F19F426F40C940D045D
:100590000EF4E095E7FB0C940704E92F0E942F046A
:1005A00058F3BA17620773078407950720F079F4A8
:1005B000A6F50C9451040EF4E0950B2EBA2FA02D45
:1005C0000B01B90190010C01CA01A0011124FF2700
:1005D000591B99F0593F50F4503E68F11A16F040FB
:1005E000A22F232F342F4427585FF3CF46953795FA
:1005F0002795A795F0405395C9F77EF41F16BA0BBF
:10060000620B730B840BBAF09150A1F0FF0FBB1F6C
:10061000661F771F881FC2F70EC0BA0F621F731FB5
:10062000841F48F4879577956795B795F7959E3F12
:1006300008F0B0CF9395880F08F09927EE0F9795A3
:10064000879508950E9436030C941E040E94170497
:1006500058F00E94100440F029F45F3F29F00C94F8
:10066000070451110C9452040C940D040E942F04A1
:1006700068F39923B1F3552391F3951B550BBB27D1
:10068000AA2762177307840738F09F5F5F4F220F16
:10069000331F441FAA1FA9F335D00E2E3AF0E0E80D
:1006A00032D091505040E695001CCAF72BD0FE2F57
:1006B00029D0660F771F881FBB1F261737074807EB
:1006C000AB07B0E809F0BB0B802DBF01FF279358A3
:1006D0005F4F3AF09E3F510578F00C9407040C945C
:1006E00052045F3FE4F3983ED4F38695779567957F
:1006F000B795F7959F5FC9F7880F911D96958795D8
:1007000097F90895E1E0660F771F881FBB1F6217F6
:1007100073078407BA0720F0621B730B840BBA0BB4
:10072000EE1F88F7E09508950E949B036894B1112D
:100730000C94520408950E94370488F09F5798F053
:10074000B92F9927B751B0F0E1F0660F771F881FD6
:10075000991F1AF0BA95C9F714C0B13091F00E94F0
:100760005104B1E008950C945104672F782F882725
:10077000B85F39F0B93FCCF3869577956795B39517
:10078000D9F73EF490958095709561957F4F8F4F86
:100790009F4F0895E89409C097FB3EF4909580958B
:1007A000709561957F4F8F4F9F4F9923A9F0F92F37
:1007B00096E9BB279395F695879577956795B795B5
:1007C000F111F8CFFAF4BB0F11F460FF1BC06F5F9B
:1007D0007F4F8F4F9F4F16C0882311F096E911C0AD
:1007E000772321F09EE8872F762F05C0662371F0CE
:1007F00096E8862F70E060E02AF09A95660F771FE2
:10080000881FDAF7880F9695879597F9089597F9D5
:100810009F6780E870E060E008959FEF80EC0895A6
:1008200000240A94161617061806090608950024CF
:100830000A9412161306140605060895092E039449
:10084000000C11F4882352F0BB0F40F4BF2B11F4BD
:1008500060FF04C06F5F7F4F8F4F9F4F089557FD1C
:100860009058440F551F59F05F3F71F04795880F1E
:1008700097FB991F61F09F3F79F0879508951216B5
:1008800013061406551FF2CF4695F1DF08C0161661
:1008900017061806991FF1CF869571056105089412
:1008A0000895E894BB2766277727CB0197F9089529
:1008B00097FB072E16F4009407D077FD09D00E940D
:1008C000720407FC05D03EF4909581959F4F0895E2
:1008D000709561957F4F0895EE0FFF1F0590F4917D
:1008E000E02D0994AA1BBB1B51E107C0AA1FBB1F27
:1008F000A617B70710F0A61BB70B881F991F5A95AC
:10090000A9F780959095BC01CD010895F894FFCF8B
:1009100020537065656420302500205475726E2068
:100920004F4E2041432046616E2100205370656583
:1009300064203235250020537065656420353025EC
:10094000002053706565642037352500205370659D
:08095000656420313030250000
:00000001FF
