S01D0000536D61727420486F6D6520285A29204D61737465722E7372656300
S11300000C9474000C9489000C9489000C9489005D
S11300100C9489000C9489000C9489000C94890038
S11300200C9489000C9489000C9489000C94890028
S11300300C9489000C9489000C9489000C94890018
S11300400C9489000C9489000C9489000C94890008
S11300500C948900E7014501EB0145014501450187
S1130060450145014501450145014501450145015C
S1130070450145014501450145014501450145014C
S113008051016F018D0145014501C901450145013A
S1130090450145014501450145014501450145012C
S11300A0450145014501AB014501450145014501B6
S11300B0450145014501450145014501450145010C
S11300C060017E019C0145014501D80145014501BE
S11300D045014501450145014501450145014501EC
S11300E0450145014501BA0111241FBECFE5D8E001
S11300F0DEBFCDBF11E0A0E6B0E0E8E3F4E002C06B
S113010005900D92A231B107D9F70E942D010C94EC
S11301101A020C94000092B39F70282F207F922B18
S113012092BB9298939A35E03A95F1F70000939830
S1130130EFE8F1E03197F1F700C0000022B32F702F
S1130140F0E18F9FC0011124822B82BB939A35E08A
S11301503A95F1F7000093988FE891E00197F1F751
S113016000C00000089581B38C6081BB81B3806FAF
S113017081BB93988FE39FE10197F1F700C00000E2
S113018082E30E948B0088E20E948B008CE00E9434
S11301908B0081E00E948B008FE39FE10197F1F7D0
S11301A000C00000089592B39F70282F207F922BE7
S11301B092BB929A939A35E03A95F1F7000093989E
S11301C0EFE8F1E03197F1F700C0000022B32F709F
S11301D0F0E18F9FC0011124822B82BB939A35E0FA
S11301E03A95F1F7000093988FE891E00197F1F7C1
S11301F000C0000008950F931F93CF93FC018081EA
S1130200882359F08F01C0E00E94D300CF5FF8012A
S1130210EC0FF11D80818111F7CFCF911F910F91C8
S11302200895CF93DF9300D0CDB7DEB790E89983DC
S113023090EC9A83FE01E60FF11D81509081890FA5
S11302400E948B008FE891E00197F1F700C0000055
S11302500F900F90DF91CF9108950E94B3008DE429
S11302600E94EF01C4980E94060261E081E00E94AE
S1130270110180E690E00E94FB0062E081E00E94B0
S113028011018FE690E00E94FB000E94100290E0B2
S1130290FC01BB97EA34F105C0F7E65DFF4F0C940F
S11302A0140281E40E94010281E00E948B0061E05B
S11302B082E00E9411018EE790E00E94FB00E5CFEE
S11302C081E60E94010261E082E00E94110181E066
S11302D00E948B008CE890E00E94FB00D6CF82E461
S11302E00E94010261E082E00E94110181E00E940B
S11302F08B008BE990E00E94FB00C7CF82E60E944E
S1130300010261E082E00E94110181E00E948B0001
S113031089EA90E00E94FB00B8CF83E40E940102C6
S113032061E082E00E94110181E00E948B0088EB71
S113033090E00E94FB00A9CF83E60E94010261E0E5
S113034082E00E94110181E00E948B0086EC90E023
S11303500E94FB009ACF84E50E94010261E082E0E2
S11303600E94110181E00E948B0085ED90E00E94C3
S1130370FB008BCF84E70E94010261E082E00E94CF
S1130380110181E00E948B0084EE90E00E94FB004A
S11303907CCF86E40E94010261E082E00E941101A8
S11303A081E00E948B0082EF90E00E94FB006DCF01
S11303B086E60E94010261E082E00E94110181E070
S11303C00E948B0081E091E00E94FB005ECF8BE2F3
S11303D00E9401025ACF8DE20E94010256CF8D3451
S11303E019F0833551F0089587B3806B87BBBE98AD
S11303F08DB180658DB9C49A0895BD98BE9A6E9AE0
S113040008958FB9779BFECF8FB108958AB1886123
S11304108AB980B5866880BD87E689B910BC08951D
S11304205F9BFECF8CB10895EE0FFF1F0590F491F2
S10B0430E02D0994F894FFCFBC
S1130438414D49542D4C6561726E696E67200053B5
S11304486D61727420486F6D6520285A2900205206
S11304584F4F4D2041204953204F4E0020524F4FBB
S11304684D2041204953204F46460020524F4F4DBE
S11304782042204953204F4E0020524F4F4D2042D6
S1130488204953204F46460020524F4F4D204320C9
S11304984953204F4E0020524F4F4D20432049537B
S11304A8204F4646002041432054656D702E20534A
S11304B865742000204143205379732E204F46460B
S11304C820002041432046616E206973204F4E204E
S11304D8002041432046616E206973204F46462020
S10504E800000E
S9030000FC
